:020000040800F2
:10000000900A002089010008350E0008310E000812
:10001000330E00088F02000865130008000000007E
:10002000000000000000000000000000CB100008ED
:100030009102000800000000C91000084D120008DD
:10004000A3010008A3010008A3010008A301000800
:10005000A3010008A3010008A3010008A3010008F0
:10006000A3010008A3010008A3010008A3010008E0
:10007000A3010008A3010008A3010008A3010008D0
:10008000A3010008A3010008A3010008A3010008C0
:10009000A3010008A3010008A3010008A3010008B0
:1000A000A3010008A3010008A3010008A3010008A0
:1000B000A3010008A3010008A3010008A301000890
:1000C000A3010008A3010008A3010008A301000880
:1000D000A3010008A3010008A3010008A301000870
:1000E000A3010008A3010008A301000800F002F822
:1000F00000F03AF80AA090E8000C82448344AAF188
:100100000107DA4501D100F02FF8AFF2090EBAE885
:100110000F0013F0010F18BFFB1A43F0010318473B
:100120002416000044160000103A24BF78C878C195
:10013000FAD8520724BF30C830C144BF04680C60ED
:10014000704700000023002400250026103A28BF35
:1001500078C1FBD8520728BF30C148BF0B60704739
:100160001FB51FBD10B510BD00F058F81146FFF7C0
:10017000F7FF01F011F900F076F803B4FFF7F2FF92
:1001800003BC00F07DF8000009488047094800479B
:10019000FEE7FEE7FEE7FEE7FEE7FEE7FEE7FEE737
:1001A000FEE7FEE704480549054A064B7047000094
:1001B00063130008ED00000890040020900A00205E
:1001C00090060020900600204FF0000200B5134674
:1001D00094469646203922BFA0E80C50A0E80C5067
:1001E000B1F12001BFF4F7AF090728BFA0E80C5018
:1001F00048BF0CC05DF804EB890028BF40F8042B11
:1002000008BF704748BF20F8022B11F0804F18BF7D
:1002100000F8012B7047704770477047754600F033
:100220002BF8AE4605006946534620F00700854688
:1002300018B020B5FFF7B6FFBDE820404FF000062C
:100240004FF000074FF000084FF0000B21F00701BE
:10025000AC46ACE8C009ACE8C009ACE8C009ACE801
:10026000C0098D46704710B50446AFF300802046A4
:10027000BDE81040FFF781BF004870472C04002004
:1002800001491820ABBEFEE7260002007047FEE7DA
:1002900070472DE9FF4F82B01C460026DDF83C80F8
:1002A00028E01198844202D9201A401E84B220B25C
:1002B0000190039800250FFA80FA02980FFA86FB46
:1002C0000FFA80F90FE0034628B20746049A019915
:1002D00000F090F900905B463A465146484600F0DF
:1002E000F5FE6D1CADB240464545ECD3641C761C52
:1002F000A4B2B6B210988642D3D306B0BDE8F08F50
:100300002DE9FE4FB74C6FF016052046A1784089C5
:100310006E1E21B101290BD002291BD108E0312822
:1003200002D23020608101E0482813D260890FE0BA
:1003300001EB410105EBC102824202DCB0EBC10FCF
:1003400002D906EBC10060816089B0EBC10F01D218
:10035000401C60814FF0140847211827CDF8008019
:10036000CDE901716389A04A10210020FFF791FFB8
:10037000E07809214FF0D80A0A2820D2DFE800F0FF
:10038000050B0B0B0B0B0B0B0B0B227872B30A2A12
:1003900039D0142A37D000EB4000A28905EBC00306
:1003A000934202DCB2EBC00F02D906EBC002A2817D
:1003B00092B2B2EBC00F01D2521CA2812172207AFC
:1003C000CDF8008000EB4000C0001730CDE901708F
:1003D000A389854A10211620FFF75BFF20790628A4
:1003E0003CD2DFE800F01E282828282803202072AD
:1003F000A089A0F14901182902D34820A0810CE06E
:1004000060280AD3DBE72172A089D92803D250469D
:10041000A4F80CA001E0F028D1D280B2401CA08149
:10042000CDE7E089792802D27820E08101E09028A8
:1004300014D280B210E000EB4001E08905EBC1026C
:10044000824202DCB0EBC10F02D906EBC100E081B1
:1004500080B2B0EBC10F01D2401CE081B9468F21C0
:10046000CDF80080CDE901914746E3895E4A10212D
:100470003220FFF70EFF60790A2826D2DFE800F06D
:1004800005121212121212121212208AD92803D245
:100490005046A4F810A001E0F02816D280B2401C0B
:1004A000208212E000EB4000218A05EBC0028A4264
:1004B00002DCB1EBC00F02D906EBC001218289B288
:1004C000B1EBC00F01D2491C2182EF210097CDE989
:1004D0000191238A444A10214820FFF7DAFEA079CF
:1004E0006FF00E056E1E062821D2DFE800F0030F24
:1004F0000F0F0F0F608A512802D25020608201E056
:10050000602814D280B2401C608210E0618A05EB42
:1005100000128A4202DCB1EB001F02D906EB001187
:10052000618289B2B1EB001F01D2491C61824FF098
:100530000E085F211027CDF80080CDE90171638A94
:100540002A4A18215E20FFF7A4FEE0790A2823D268
:10055000DFE800F005111111111111111111A08A1C
:10056000912802D29020A08201E0A02814D280B26B
:10057000401CA08210E0A18A05EB00128A4202DC36
:10058000B1EB001F02D906EB0011A18289B2B1EBD9
:10059000001F01D2491CA1829F21CDF80080CDE926
:1005A0000171A38A114A18216F20FFF772FE60784B
:1005B000C00708D00E4800901823042210212C20D8
:1005C00000F064FC05E01823042210212C2000F028
:1005D00032FC03B07F23BDE8F04F0022042102204B
:1005E00000F00CBD02000020B61300080E16000833
:1005F00026170008024410B5C81701EB5070C4104C
:1006000004FB032220F007001278081AC240D0072A
:1006100000D0012010BD000070B5044600F008F9BC
:100620000546601C02D004480078044400F000F93C
:10063000401BA042FAD370BD1C0000202DE9F84FEA
:10064000DFF8B891002409F1040A0AF1040B2346EB
:100650000F270BF1040EC9E00125A5402A40AA424C
:100660007DD1674ED1F804C0ACEB0608B44532D05A
:1006700014DCBCF1030F3AD009DCBCF1000F2AD026
:10068000BCF1010F1CD0BCF1020F31D11DE0BCF157
:10069000110F17D0BCF1120F2AD119E0B8F5881F3D
:1006A00019D006DCB8F5803F15D0B8F5801F1FD1F2
:1006B00011E0B8F5001F0ED0B8F5041F18D10AE0FC
:1006C000CB6815E0CB681B1D12E0CB6808330FE048
:1006D000CB680C330CE08B682BB1012B4FF0080377
:1006E00003D0456104E0042302E0056100E000233B
:1006F000FF2A01D8064601E000F104064FEA84050E
:1007000001D9A5F12005D6F8008007FA05FC28EAF2
:100710000C0803FA05F548EA0508C6F800804D689C
:10072000ED0062D5374DAE6946F00106AE61AD69A8
:1007300024F0030605F001050095334D06EB050C8A
:10074000DCF80850A607360F07FA06F825EA080570
:10075000DFF8B880404503D14FF0000817E044E0CF
:10076000DFF8AC80404502D14FF001080FE0DFF820
:10077000A480404502D14FF0020808E0DFF89880DD
:10078000404502D14FF0030801E04FF0040808FA99
:1007900006F848EA0508CCF808804D68D9F80060EA
:1007A000ED034D4601D5164300E096432E604D689B
:1007B000DAF80060AD03554601D5164300E09643D4
:1007C0002E604D68DBF80060ED025D4601D51643F2
:1007D00000E096432E604D68DEF80060AD0275467D
:1007E00001D5164300E096432E60641C0D682A462E
:1007F000E5407FF431AFBDE8F88F00000004014010
:1008000000001110001002400000014000080140EB
:10081000000C0140001001400014014080680840B5
:1008200000D0012070470AB1016170470904FBE75D
:1008300001488068704700001C0000200248816861
:1008400002781144816070471C000020074810B5F1
:10085000016841F010010160032000F067F80F20EB
:1008600000F006F800F024F8002010BD002002403F
:1008700070B50D4D04464FF47A712878B1FBF0F055
:100880000A490968B1FBF0F000F0BEFA48B9102C33
:1008900007D200222146501E00F028F800206C608C
:1008A00070BD012070BD00001C0000202800002049
:1008B0000C4808B5816941F001018161816901F04D
:1008C00001010091C16941F08051C161C06900F02E
:1008D000805000900448416821F0E06141F00071CF
:1008E000416008BD0010024000000140F0B40E4B12
:1008F0001B680C46C3F30223C3F10705042D00D97E
:100900000425191D072901D2002300E0DB1E012662
:1009100006FA05F1491E214099409E40761E164078
:100920003143F0BC00F027BD0CED00E0064900F0BB
:10093000070208684FF6FF03184040EA0220034A06
:1009400010430860704700000CED00E00000FA055D
:100950002DE9F0470F46050061D0434E306800F0A6
:100960000700B84209D2306820F0070038433060F1
:10097000306800F00700B84251D128683B4C81072D
:1009800012D5400703D5606840F4E06060602878C5
:10099000000703D5606840F4605060606068A96833
:1009A00020F0F000084360602878C00728D068680D
:1009B000012810D02168022810D0890700292EDADA
:1009C000616821F0030101436160FFF731FF804658
:1009D00041F288390DE021688903EFE78901EDE7ED
:1009E000FFF726FFA0EB0801494502D90320BDE827
:1009F000F0876068696800F00C00B0EB810FEFD100
:100A0000306800F00700B8420BD9306820F00700CA
:100A100038433060306800F00700B84201D0012050
:100A2000E5E72878400705D56068E96820F4E060CC
:100A3000084360602878000706D56068296920F4BB
:100A4000605040EAC100606000F018F86168084A30
:100A5000C1F30311515CC8400649086006480068AC
:100A6000FFF706FF0020C2E700200240001002400E
:100A700032170008280000202000002012A185B0B5
:100A80000FC98DE80F0014A0144A00680490516843
:100A9000134801F00C03042B10D0082B0ED1C1F326
:100AA0008343C9031DF803000AD5516804AAC1F3A2
:100AB0004041515C0A4A5043B0FBF1F005B0704729
:100AC00008494843FAE7000002030405060708093D
:100AD0000A0B0C0D0E0F1010010200000010024056
:100AE00000127A0000093D002DE9F84F040070D093
:100AF0002078C04DC00749D06868C0F38100012844
:100B000007D06868C0F38100022809D16868C00373
:100B100006D52868800339D560680028E7D035E01D
:100B20006068B0F5803F0BD010B1B0F5A02F11D0A8
:100B3000286820F480302860286820F4802002E0B3
:100B4000286840F480302860606890B1FFF770FE3C
:100B500006460AE0286840F480202860F0E700BFDD
:100B6000FFF766FE801B642873D828688003F7D5DA
:100B70000CE0FFF75DFE064605E000BFFFF758FEFC
:100B8000801B6428F0D828688003F7D420789A4E18
:100B900080074FF001094FF0000839D5686810F060
:100BA0000C0F07D06868C0F38100022809D168687B
:100BB000C00306D42868800714D52069012808D10D
:100BC00010E02069B0B1C6F80090FFF731FE07468B
:100BD00005E00AE1FFF72CFEC01B0228C4D82868F4
:100BE0008007F7D52868616920F0F80040EAC10065
:100BF00028600DE0C6F80080FFF71AFE074604E003
:100C0000FFF716FEC01B022823D828688007F7D4F8
:100C1000207800072CD57948A169D9B1C0F8009097
:100C2000FFF706FE074604E0FFF702FEC01B02289E
:100C30000FD8686A8007F7D571484FF4FA510068F9
:100C4000B0FBF1F0009000BF0098411E0091FAD275
:100C50000EE080E0C0F80080FFF7EAFD074604E000
:100C6000FFF7E6FDC01B022875D8686A8007F7D435
:100C70002078400760D5E8690027C00008D4E869FB
:100C800040F08050E861E869012700F08050009052
:100C90005C480168C90513D40168834641F480713A
:100CA0000160FFF7C5FD824606E000BFFFF7C0FD0B
:100CB000A0EB0A0064284ED8DBF80000C005F5D58B
:100CC000E06801280AD008B1052813D0286A20F06E
:100CD00001002862286A20F0040002E0286A40F03F
:100CE00001002862E06841F2883B98B1FFF7A0FD5F
:100CF00082460BE0286A40F004002862EEE700BF5D
:100D0000FFF796FDA0EB0A0159455AD8286A8007DB
:100D1000F6D50CE0FFF78CFD824605E0FFF788FD75
:100D2000A0EB0A0159454CD8286A8007F6D41FB1B8
:100D3000E86920F08050E861E06988B36968C1F330
:100D40008101022944D00228C6F8608004D0FFF750
:100D50006FFD044638E034E0FFF76AFD074604E023
:100D6000FFF766FDC01B02282BD828688001F7D446
:100D7000206AB0F5803F05D16868A16820F4003092
:100D800008436860D4E908010843696821F47411D4
:100D900008436860C6F86090FFF74AFD044606E025
:100DA00025E000BFFFF744FD001B022809D8286892
:100DB0008001F7D51BE000BFFFF73AFD001B0228BA
:100DC00002D90320BDE8F88F28688001F4D40EE032
:100DD0000128F7D06868226A00F48031914204D17A
:100DE000616A00F47010884201D00120EAE7002017
:100DF000E8E7000000100240000042428004424246
:100E0000280000200070004010B5401EB0F1807F27
:100E100001D3012010BD4FF0E02460610F21601765
:100E200000F0A9FA0020A06107202061002010BD79
:100E3000FEE7FEE7FEE72DE9F0438046802823D257
:100E400008EB0207802F1FDC00291DDB40291BDA7D
:100E500001EB0309B9F1400F16DC0C4612E04546E0
:100E60000CE00026A01901B20022284600F00EF97D
:100E7000761C36B2082EF5DB6D1C2DB2AF42F0DCCD
:100E8000083424B2A145EADCBDE8F0832DE9F0473F
:100E90008146089F802828D209EB0208B8F1800F0C
:100EA00023DC002921DB40291FDA01EB030ABAF118
:100EB000400F1ADC0C4616E04E4610E0002538784C
:100EC000E84000F00102601901B2304600F0DEF89F
:100ED0006D1C2DB2082DF2DB761C36B27F1CB0459E
:100EE000ECDC083424B2A245E6DCBDE8F087000063
:100EF00030B4084C0022002104EBC2135854491CA2
:100F000089B28029FAD3521C92B2082AF3D330BC9A
:100F100000F0A6B82C00002010B54FF4FA70FFF7CF
:100F20007BFBAE2000F01FFA202000F01CFA00200E
:100F300000F019FA212000F016FA002000F013FA50
:100F40007F2000F010FA222000F00DFA002000F0BF
:100F50000AFA072000F007FAC82000F004FA40203F
:100F600000F001FA812000F0FEF9FF2000F0FBF90B
:100F7000A12000F0F8F9A62000F0F5F9A82000F073
:100F8000F2F93F2000F0EFF9A42000F0ECF9D320B3
:100F900000F0E9F9002000F0E6F9D52000F0E3F9CF
:100FA000F02000F0E0F9D92000F0DDF9222000F077
:100FB000DAF9DA2000F0D7F9122000F0D4F9DB20BA
:100FC00000F0D1F9202000F0CEF98D2000F0CBF90F
:100FD000142000F0C8F9AF2000F0C5F9BDE81040BA
:100FE0000020FFF785BF10B50446812000F0BBF953
:100FF0002046BDE8104000F0B6B900002DE9F047EA
:1010000004461E4692460D46212000F0ACF950469B
:1010100000F0A9F9304600F0A6F9222000F0A3F96B
:10102000204600F0A0F9284600F09DF96F1CDFF87B
:101030002C90761C0EE0554609EBC41806E000BF64
:1010400018F8050000F093F96D1CADB2B542F7D366
:10105000641CA4B2BC42EED3BDE8F0872C00002093
:101060002DE9F041084F0025002407EBC516305D3F
:1010700000F07DF9641CA4B2802CF8D36D1CADB2D5
:10108000082DF1D3BDE8F0812C00002030B5802878
:1010900017D2002915DB402913DACB1701EB537364
:1010A00023F007040C1B0121064DA140DB1005EBCA
:1010B000C3131844002A027801D00A4300E08A438F
:1010C000027030BD2C0000207047704770B5194485
:1010D000CB1701EB537323F007068E1B0121074D3D
:1010E000B140DB1005EBC31310441A18049C1078B0
:1010F0000CB1084300E08843107070BD2C00002044
:1011000070B50D46044600F076F8782000F05AF8E5
:1011100000F044F8204600F055F800F03FF828466B
:1011200000F050F800F03AF8BDE8704000F072B8F6
:1011300010B586B0002000900190029003901248F4
:10114000816941F020018161816901F020010491F0
:10115000816941F00401816180690C4C00F0040058
:101160000490012260212046FFF75DFB6020009083
:101170001120019001200290022003906946204630
:10118000FFF75CFA06B010BD0010024000080140F5
:1011900020210148FFF742BB0008014010B50120A3
:1011A00000F04CF8012000F041F8FFF7F1FF0128B2
:1011B00005D00024002000F039F8204610BD01249D
:1011C000F8E7000070B500240546802626FA04F0F2
:1011D000A8430ED05FF0000000F030F8012000F0CE
:1011E00025F8002000F022F8641CE4B2082CEDD3AE
:1011F00070BD0120F0E710B5012000F01FF80120BC
:1012000000F014F8002000F019F8BDE810400020AC
:1012100000F00CB810B5002000F010F8012000F02C
:1012200005F8BDE81040012000F008B80246402152
:101230000148FFF7F8BA00000008014002462021EB
:101240000148FFF7F0BA00000008014030B4234C19
:101250002349254B2088401C82B222482280B2F5C7
:101260007A7F16D1002222800C78641CE4B20C70C4
:101270003C2C0ED10A700478641CE4B204703C2C3F
:1012800007D102701C78641CE4B21C70182C00D1C9
:101290001A701B780A22B3FBF2F4144D2C70B3FBC6
:1012A000F2F402FB1433124C23700078114CB0FBA3
:1012B000F2F32370B0FBF2F302FB13000E4B187035
:1012C00008780E4BB0FBF2F11970B0FBF2F102FBA3
:1012D00011000B49087030BCFFF7B0BA00000020C5
:1012E000030000201800002002000020040000205D
:1012F0000500002006000020070000200800002054
:101300000900002030B58FB028216846FEF75CFF49
:1013100014210AA8FEF758FF01210804CDE90010A6
:101320000024029402250491CDE907504FF4E01007
:1013300009906846FFF7D8FB08B172B6FEE70F20A8
:10134000CDE90A054FF48060CDE90C4002210AA8DE
:101350000E94FFF7FDFA002801D072B6FEE70FB039
:1013600030BD7047FEE701460020FFF7C9BE0146C9
:101370004020FFF7C5BE0907090E002804DB00F175
:10138000E02080F80014704700F00F0000F1E0202A
:1013900080F8141D70470000FFF758FAFFF7B2FFFE
:1013A000FFF7C6FEFFF7B8FD3220FFF71CFE00BFB7
:1013B000FEF7A6FFFCE7FCFEFEFEFE1E1E1E1E1E26
:1013C0001E1E1E1E1EFEFEFEFEFCFFFFFFFFFF0098
:1013D000000000000000000000FFFFFFFFFF3F7F54
:1013E0007F7F7F787878787878787878787F7F7F53
:1013F0007F3F0000000000007078FEFEFEFEFE0051
:101400000000000000000000000000000000FFFFDE
:10141000FFFFFF00000000000000000000000000CF
:1014200000007F7F7F7F7F00000000000000FCFE47
:10143000FEFEFE1E1E1E1E1E1E1E1E1E1EFEFEFE8C
:10144000FEFC0000000000000080C0E0F0F87C3EE0
:101450001F0F07030100787878787C7E7F7F7F7B81
:1014600079787878787878787878FCFEFEFEFE1EB9
:101470001E1E1E1E1E1E1E1E1EFEFEFEFEFC00006A
:10148000000000001818183C3C7E7E7EFFE7E7E76E
:10149000E7C33F7F7F7F7F7878787878787878782F
:1014A000787F7F7F7F3F000000000080C0E0F0F881
:1014B0007CFEFEFEFEFE00000000F0F8FCFEFF0FCA
:1014C0000703010000FFFFFFFFFF000000000F0FF8
:1014D0000F0F0F0F0F0F0F0F0F7F7F7F7F7F0F0FEC
:1014E0000F0FFEFEFEFEFE1E1E1E1E1E1E1E1E1EDA
:1014F0001E1E1E1E1E1E1F1F1F1F1F1E1E1E1E1E07
:101500001E1E1E1E1EFEFEFEFEFC7F7F7F7F7F785E
:101510007878787878787878787F7F7F7F3FFCFE5E
:10152000FEFEFE1E1E1E1E1E1E1E1E1E1E7E7E7E1B
:101530007E7CFFFFFFFFFF3C3C3C3C3C3C3C3C3C9A
:101540003CFCFCFCFCF83F7F7F7F7F7878787878E4
:1015500078787878787F7F7F7F3F7C7E7E7E7E1E66
:101560001E1E1E1E1E1E1E1E1EFEFEFEFEFE000077
:1015700000000000000080C0E0F0F87C3E1F0F0774
:10158000030100406070787C3E1F0F0703010000DC
:10159000000000000000FCFEFEFEFE1E1E1E1E1EC1
:1015A0001E1E1E1E1EFEFEFEFEFCE7E7E7FFFF3CC2
:1015B0003C3C181818183C3C3CFFFFE7E7E73F7F2E
:1015C0007F7F7F787878787878787878787F7F7F71
:1015D0007F3FFCFEFEFEFE1E1E1E1E1E1E1E1E1E4B
:1015E0001E1EFEFEFEFC1F3F3F3F3F3C3C3C3C3C82
:1015F0003C3C3C3C3CFCFFFFFFFF3E7E7E7E7E7819
:101600007878787878787878787F7F7F7F3FFCFE6D
:10161000FEFE0E0E0E0E0E0EFEFEFEFC3F7F7F7FC8
:101620007070707070707F7F7F3F00000000181C2A
:10163000FEFEFEFE000000000000000000007F7FB4
:101640007F7F000000001C1E1E1E0E0E0E0E8ECE92
:10165000FEFE7E3C70707070787C7E7F7773717058
:1016600070703C3E3E3E0E8E8ECECEEEFE7E7E3CBA
:101670003C7C7C7C7071717373777F7E7E3C0080D4
:10168000C0E0F0783CFEFEFEFE0000001F1F1F1FA2
:101690001C1C1C7F7F7F7F1C1C1CFEFEFEFECECE12
:1016A000CECECECECECECE8E717171717171717182
:1016B00071717F7F7F3FFCFEFEFE8E8E8E8E8E8E42
:1016C0008E8E8E0C3F7F7F7F7373737373737F7FF8
:1016D0007F3F0E0E0E0E0E0E0E0E8ECEFEFE7E3EC8
:1016E00000406070783C1E0F0703010000003C7E44
:1016F0007EFECECE8E8ECECEFE7E7E3C3C7E7E7F2D
:101700007373717173737F7E7E3CFCFEFEFECECEE2
:10171000CECECECEFEFEFEFC7879797971717171F4
:1017200071717F7F7F3FF0F0F0F0C7C7C7C70F0F21
:101730000F0F000000000000000001020304060774
:101740000809000064170008000000202C000000B9
:1017500028010008901700082C000020640A0000EF
:1017600044010008000000370000000000000000F5
:101770000000000000000000000000003B0000002E
:101780000100000010000000000000000024F40030
:04000005080000ED02
:00000001FF
